{
  "contractName": "Fight",
  "abi": [
    {
      "inputs": [
        {
          "internalType": "uint256",
          "name": "tokenId",
          "type": "uint256"
        }
      ],
      "name": "proposeToFight",
      "outputs": [],
      "stateMutability": "payable",
      "type": "function"
    },
    {
      "inputs": [
        {
          "internalType": "uint256",
          "name": "game_index",
          "type": "uint256"
        },
        {
          "internalType": "uint256",
          "name": "tokenId",
          "type": "uint256"
        }
      ],
      "name": "agreeToFight",
      "outputs": [],
      "stateMutability": "payable",
      "type": "function"
    }
  ],
  "bytecode": "0x6080604052600060015560405161001590610084565b604051809103906000f080158015610031573d6000803e3d6000fd5b50600260006101000a81548173ffffffffffffffffffffffffffffffffffffffff021916908373ffffffffffffffffffffffffffffffffffffffff16021790555034801561007e57600080fd5b50610091565b614d048061091d83390190565b61087d806100a06000396000f3fe6080604052600436106100295760003560e01c8063c1722d2b1461002e578063ed29e79714610066575b600080fd5b6100646004803603604081101561004457600080fd5b810190808035906020019092919080359060200190929190505050610094565b005b6100926004803603602081101561007c57600080fd5b8101908080359060200190929190505050610593565b005b60011515600260009054906101000a900473ffffffffffffffffffffffffffffffffffffffff1673ffffffffffffffffffffffffffffffffffffffff1663ab6520f4836040518263ffffffff1660e01b81526004018082815260200191505060206040518083038186803b15801561010b57600080fd5b505afa15801561011f573d6000803e3d6000fd5b505050506040513d602081101561013557600080fd5b810190808051906020019092919050505015151461019e576040517f08c379a00000000000000000000000000000000000000000000000000000000081526004018080602001828103825260228152602001806108266022913960400191505060405180910390fd5b6101a66107b1565b6000808481526020019081526020016000206040518060a00160405290816000820160009054906101000a900473ffffffffffffffffffffffffffffffffffffffff1673ffffffffffffffffffffffffffffffffffffffff1673ffffffffffffffffffffffffffffffffffffffff16815260200160018201548152602001600282015481526020016003820160009054906101000a900460ff161515151581526020016003820160019054906101000a900460ff16151515158152505090506001151581606001511515146102e3576040517f08c379a00000000000000000000000000000000000000000000000000000000081526004018080602001828103825260188152602001807f5468652067616d6520646f65736e27742065786973742021000000000000000081525060200191505060405180910390fd5b8060400151341461033f576040517f08c379a000000000000000000000000000000000000000000000000000000000815260040180806020018281038252602b8152602001806107fb602b913960400191505060405180910390fd5b8060800151156103b7576040517f08c379a00000000000000000000000000000000000000000000000000000000081526004018080602001828103825260188152602001807f4368616c6c656e676520616c726561647920646f6e652021000000000000000081525060200191505060405180910390fd5b80602001518211156104a457600260009054906101000a900473ffffffffffffffffffffffffffffffffffffffff1673ffffffffffffffffffffffffffffffffffffffff1663ec9b6db982602001516040518263ffffffff1660e01b815260040180828152602001915050600060405180830381600087803b15801561043c57600080fd5b505af1158015610450573d6000803e3d6000fd5b505050503373ffffffffffffffffffffffffffffffffffffffff166108fc82604001519081150290604051600060405180830381858888f1935050505015801561049e573d6000803e3d6000fd5b5061057d565b600260009054906101000a900473ffffffffffffffffffffffffffffffffffffffff1673ffffffffffffffffffffffffffffffffffffffff1663ec9b6db9836040518263ffffffff1660e01b815260040180828152602001915050600060405180830381600087803b15801561051957600080fd5b505af115801561052d573d6000803e3d6000fd5b505050503373ffffffffffffffffffffffffffffffffffffffff166108fc82604001519081150290604051600060405180830381858888f1935050505015801561057b573d6000803e3d6000fd5b505b6001816080019015159081151581525050505050565b60011515600260009054906101000a900473ffffffffffffffffffffffffffffffffffffffff1673ffffffffffffffffffffffffffffffffffffffff1663ab6520f4836040518263ffffffff1660e01b81526004018082815260200191505060206040518083038186803b15801561060a57600080fd5b505afa15801561061e573d6000803e3d6000fd5b505050506040513d602081101561063457600080fd5b810190808051906020019092919050505015151461069d576040517f08c379a00000000000000000000000000000000000000000000000000000000081526004018080602001828103825260228152602001806108266022913960400191505060405180910390fd5b6106a56107b1565b6040518060a001604052803373ffffffffffffffffffffffffffffffffffffffff16815260200183815260200134815260200160011515815260200160001515815250905080600080600154815260200190815260200160002060008201518160000160006101000a81548173ffffffffffffffffffffffffffffffffffffffff021916908373ffffffffffffffffffffffffffffffffffffffff160217905550602082015181600101556040820151816002015560608201518160030160006101000a81548160ff02191690831515021790555060808201518160030160016101000a81548160ff021916908315150217905550905050600180600082825401925050819055505050565b6040518060a00160405280600073ffffffffffffffffffffffffffffffffffffffff1681526020016000815260200160008152602001600015158152602001600015158152509056fe5468652062657420646f65736e2774206d617463682077697468207468652076616c75652073656e742021596f75206d75737420626520746865206f776e6572206f6620746865204e46542021a26469706673582212207a0e0dbc147f00c0e85a23026e3eee411366d3f7341d3740bd23e908aabf7b1f64736f6c6343000700003360806040526000600e553480156200001657600080fd5b506040518060400160405280600581526020017f44414e4f550000000000000000000000000000000000000000000000000000008152506040518060400160405280600381526020017f44414e00000000000000000000000000000000000000000000000000000000008152506200009b6301ffc9a760e01b6200011d60201b60201c565b8160069080519060200190620000b392919062000226565b508060079080519060200190620000cc92919062000226565b50620000e56380ac58cd60e01b6200011d60201b60201c565b620000fd635b5e139f60e01b6200011d60201b60201c565b6200011563780e9d6360e01b6200011d60201b60201c565b5050620002cc565b63ffffffff60e01b817bffffffffffffffffffffffffffffffffffffffffffffffffffffffff19161415620001ba576040517f08c379a000000000000000000000000000000000000000000000000000000000815260040180806020018281038252601c8152602001807f4552433136353a20696e76616c696420696e746572666163652069640000000081525060200191505060405180910390fd5b6001600080837bffffffffffffffffffffffffffffffffffffffffffffffffffffffff19167bffffffffffffffffffffffffffffffffffffffffffffffffffffffff1916815260200190815260200160002060006101000a81548160ff02191690831515021790555050565b828054600181600116156101000203166002900490600052602060002090601f016020900481019282601f106200026957805160ff19168380011785556200029a565b828001600101855582156200029a579182015b82811115620002995782518255916020019190600101906200027c565b5b509050620002a99190620002ad565b5090565b5b80821115620002c8576000816000905550600101620002ae565b5090565b614a2880620002dc6000396000f3fe60806040526004361061019c5760003560e01c80636c0360eb116100ec578063b77552d91161008a578063c87b56dd11610064578063c87b56dd14610c25578063d5563f3114610cd9578063e985e9c514610d14578063ec9b6db914610d9b5761019c565b8063b77552d9146108ca578063b88d4fde14610ace578063c34a733614610be05761019c565b80639aafc6c9116100c65780639aafc6c9146107ca578063a22cb46514610805578063ab6520f414610862578063b34a8462146108b35761019c565b80636c0360eb1461064557806370a08231146106d557806395d89b411461073a5761019c565b806326b7aeea1161015957806342842e0e1161013357806342842e0e146104d15780634f6ccce71461054c5780635e6bab681461059b5780636352211e146105e05761019c565b806326b7aeea146104075780632f745c59146104355780633ccfd60b146104a45761019c565b806301ffc9a7146101a157806306fdde0314610211578063081812fc146102a1578063095ea7b31461030657806318160ddd1461036157806323b872dd1461038c575b600080fd5b3480156101ad57600080fd5b506101f9600480360360208110156101c457600080fd5b8101908080357bffffffffffffffffffffffffffffffffffffffffffffffffffffffff19169060200190929190505050610dd6565b60405180821515815260200191505060405180910390f35b34801561021d57600080fd5b50610226610e3d565b6040518080602001828103825283818151815260200191508051906020019080838360005b8381101561026657808201518184015260208101905061024b565b50505050905090810190601f1680156102935780820380516001836020036101000a031916815260200191505b509250505060405180910390f35b3480156102ad57600080fd5b506102da600480360360208110156102c457600080fd5b8101908080359060200190929190505050610edf565b604051808273ffffffffffffffffffffffffffffffffffffffff16815260200191505060405180910390f35b34801561031257600080fd5b5061035f6004803603604081101561032957600080fd5b81019080803573ffffffffffffffffffffffffffffffffffffffff16906020019092919080359060200190929190505050610f7a565b005b34801561036d57600080fd5b506103766110be565b6040518082815260200191505060405180910390f35b34801561039857600080fd5b50610405600480360360608110156103af57600080fd5b81019080803573ffffffffffffffffffffffffffffffffffffffff169060200190929190803573ffffffffffffffffffffffffffffffffffffffff169060200190929190803590602001909291905050506110cf565b005b6104336004803603602081101561041d57600080fd5b8101908080359060200190929190505050611145565b005b34801561044157600080fd5b5061048e6004803603604081101561045857600080fd5b81019080803573ffffffffffffffffffffffffffffffffffffffff169060200190929190803590602001909291905050506114f9565b6040518082815260200191505060405180910390f35b3480156104b057600080fd5b506104b9611554565b60405180821515815260200191505060405180910390f35b3480156104dd57600080fd5b5061054a600480360360608110156104f457600080fd5b81019080803573ffffffffffffffffffffffffffffffffffffffff169060200190929190803573ffffffffffffffffffffffffffffffffffffffff16906020019092919080359060200190929190505050611678565b005b34801561055857600080fd5b506105856004803603602081101561056f57600080fd5b8101908080359060200190929190505050611698565b6040518082815260200191505060405180910390f35b3480156105a757600080fd5b506105de600480360360408110156105be57600080fd5b8101908080359060200190929190803590602001909291905050506116bb565b005b3480156105ec57600080fd5b506106196004803603602081101561060357600080fd5b8101908080359060200190929190505050611c67565b604051808273ffffffffffffffffffffffffffffffffffffffff16815260200191505060405180910390f35b34801561065157600080fd5b5061065a611c9e565b6040518080602001828103825283818151815260200191508051906020019080838360005b8381101561069a57808201518184015260208101905061067f565b50505050905090810190601f1680156106c75780820380516001836020036101000a031916815260200191505b509250505060405180910390f35b3480156106e157600080fd5b50610724600480360360208110156106f857600080fd5b81019080803573ffffffffffffffffffffffffffffffffffffffff169060200190929190505050611d40565b6040518082815260200191505060405180910390f35b34801561074657600080fd5b5061074f611e15565b6040518080602001828103825283818151815260200191508051906020019080838360005b8381101561078f578082015181840152602081019050610774565b50505050905090810190601f1680156107bc5780820380516001836020036101000a031916815260200191505b509250505060405180910390f35b3480156107d657600080fd5b50610803600480360360208110156107ed57600080fd5b8101908080359060200190929190505050611eb7565b005b34801561081157600080fd5b506108606004803603604081101561082857600080fd5b81019080803573ffffffffffffffffffffffffffffffffffffffff169060200190929190803515159060200190929190505050612275565b005b34801561086e57600080fd5b5061089b6004803603602081101561088557600080fd5b810190808035906020019092919050505061242b565b60405180821515815260200191505060405180910390f35b3480156108bf57600080fd5b506108c861243e565b005b3480156108d657600080fd5b50610acc600480360360808110156108ed57600080fd5b810190808035906020019064010000000081111561090a57600080fd5b82018360208201111561091c57600080fd5b8035906020019184600183028401116401000000008311171561093e57600080fd5b91908080601f016020809104026020016040519081016040528093929190818152602001838380828437600081840152601f19601f820116905080830192505050505050509192919290803590602001906401000000008111156109a157600080fd5b8201836020820111156109b357600080fd5b803590602001918460018302840111640100000000831117156109d557600080fd5b91908080601f016020809104026020016040519081016040528093929190818152602001838380828437600081840152601f19601f820116905080830192505050505050509192919290803561ffff16906020019092919080359060200190640100000000811115610a4657600080fd5b820183602082011115610a5857600080fd5b80359060200191846001830284011164010000000083111715610a7a57600080fd5b91908080601f016020809104026020016040519081016040528093929190818152602001838380828437600081840152601f19601f820116905080830192505050505050509192919290505050612498565b005b348015610ada57600080fd5b50610bde60048036036080811015610af157600080fd5b81019080803573ffffffffffffffffffffffffffffffffffffffff169060200190929190803573ffffffffffffffffffffffffffffffffffffffff1690602001909291908035906020019092919080359060200190640100000000811115610b5857600080fd5b820183602082011115610b6a57600080fd5b80359060200191846001830284011164010000000083111715610b8c57600080fd5b91908080601f016020809104026020016040519081016040528093929190818152602001838380828437600081840152601f19601f8201169050808301925050505050505091929192905050506125f8565b005b348015610bec57600080fd5b50610c2360048036036040811015610c0357600080fd5b810190808035906020019092919080359060200190929190505050612670565b005b348015610c3157600080fd5b50610c5e60048036036020811015610c4857600080fd5b8101908080359060200190929190505050612a49565b6040518080602001828103825283818151815260200191508051906020019080838360005b83811015610c9e578082015181840152602081019050610c83565b50505050905090810190601f168015610ccb5780820380516001836020036101000a031916815260200191505b509250505060405180910390f35b348015610ce557600080fd5b50610d1260048036036020811015610cfc57600080fd5b8101908080359060200190929190505050612d1a565b005b348015610d2057600080fd5b50610d8360048036036040811015610d3757600080fd5b81019080803573ffffffffffffffffffffffffffffffffffffffff169060200190929190803573ffffffffffffffffffffffffffffffffffffffff169060200190929190505050612f87565b60405180821515815260200191505060405180910390f35b348015610da757600080fd5b50610dd460048036036020811015610dbe57600080fd5b810190808035906020019092919050505061301b565b005b6000806000837bffffffffffffffffffffffffffffffffffffffffffffffffffffffff19167bffffffffffffffffffffffffffffffffffffffffffffffffffffffff1916815260200190815260200160002060009054906101000a900460ff169050919050565b606060068054600181600116156101000203166002900480601f016020809104026020016040519081016040528092919081815260200182805460018160011615610100020316600290048015610ed55780601f10610eaa57610100808354040283529160200191610ed5565b820191906000526020600020905b815481529060010190602001808311610eb857829003601f168201915b5050505050905090565b6000610eea826130a3565b610f3f576040517f08c379a000000000000000000000000000000000000000000000000000000000815260040180806020018281038252602c81526020018061491d602c913960400191505060405180910390fd5b6004600083815260200190815260200160002060009054906101000a900473ffffffffffffffffffffffffffffffffffffffff169050919050565b6000610f8582611c67565b90508073ffffffffffffffffffffffffffffffffffffffff168373ffffffffffffffffffffffffffffffffffffffff16141561100c576040517f08c379a00000000000000000000000000000000000000000000000000000000081526004018080602001828103825260218152602001806149a16021913960400191505060405180910390fd5b8073ffffffffffffffffffffffffffffffffffffffff1661102b6130c0565b73ffffffffffffffffffffffffffffffffffffffff16148061105a5750611059816110546130c0565b612f87565b5b6110af576040517f08c379a000000000000000000000000000000000000000000000000000000000815260040180806020018281038252603881526020018061484b6038913960400191505060405180910390fd5b6110b983836130c8565b505050565b60006110ca6002613181565b905090565b6110e06110da6130c0565b82613196565b611135576040517f08c379a00000000000000000000000000000000000000000000000000000000081526004018080602001828103825260318152602001806149c26031913960400191505060405180910390fd5b61114083838361328a565b505050565b6000600c60008381526020019081526020016000209050600081805490509050600081146111db576040517f08c379a00000000000000000000000000000000000000000000000000000000081526004018080602001828103825260138152602001807f4e6f2061756374696f6e2065786973747320210000000000000000000000000081525060200191505060405180910390fd5b6111e36145df565b826001848054905003815481106111f657fe5b90600052602060002090600402016040518060c00160405290816000820160009054906101000a900473ffffffffffffffffffffffffffffffffffffffff1673ffffffffffffffffffffffffffffffffffffffff1673ffffffffffffffffffffffffffffffffffffffff16815260200160018201548152602001600282015481526020016003820160009054906101000a900473ffffffffffffffffffffffffffffffffffffffff1673ffffffffffffffffffffffffffffffffffffffff1673ffffffffffffffffffffffffffffffffffffffff1681526020016003820160149054906101000a900460ff161515151581526020016003820160159054906101000a900460ff16151515158152505090508060200151421115611381576040517f08c379a00000000000000000000000000000000000000000000000000000000081526004018080602001828103825260178152602001807f41756374696f6e20616c726561647920656e646564202100000000000000000081525060200191505060405180910390fd5b348160400151106113fa576040517f08c379a000000000000000000000000000000000000000000000000000000000815260040180806020018281038252601f8152602001807f546865726520616c72656164792069732061206869676865722062696420210081525060200191505060405180910390fd5b600081604001511461145c578060400151600d6000836060015173ffffffffffffffffffffffffffffffffffffffff1673ffffffffffffffffffffffffffffffffffffffff168152602001908152602001600020600082825401925050819055505b33816060019073ffffffffffffffffffffffffffffffffffffffff16908173ffffffffffffffffffffffffffffffffffffffff1681525050348160400181815250507ff4757a49b326036464bec6fe419a4ae38c8a02ce3e68bf0809674f6aab8ad3003334604051808373ffffffffffffffffffffffffffffffffffffffff1681526020018281526020019250505060405180910390a150505050565b600061154c82600160008673ffffffffffffffffffffffffffffffffffffffff1673ffffffffffffffffffffffffffffffffffffffff1681526020019081526020016000206134cd90919063ffffffff16565b905092915050565b600080600d60003373ffffffffffffffffffffffffffffffffffffffff1673ffffffffffffffffffffffffffffffffffffffff168152602001908152602001600020549050600081111561166f576000600d60003373ffffffffffffffffffffffffffffffffffffffff1673ffffffffffffffffffffffffffffffffffffffff168152602001908152602001600020819055503373ffffffffffffffffffffffffffffffffffffffff166108fc829081150290604051600060405180830381858888f1935050505061166e5780600d60003373ffffffffffffffffffffffffffffffffffffffff1673ffffffffffffffffffffffffffffffffffffffff168152602001908152602001600020819055506000915050611675565b5b60019150505b90565b611693838383604051806020016040528060008152506125f8565b505050565b6000806116af8360026134e790919063ffffffff16565b50905080915050919050565b6116c53383613196565b611737576040517f08c379a00000000000000000000000000000000000000000000000000000000081526004018080602001828103825260178152602001807f596f75206d75737420626520746865206f776e6572202100000000000000000081525060200191505060405180910390fd5b6117413382613196565b6117b3576040517f08c379a00000000000000000000000000000000000000000000000000000000081526004018080602001828103825260178152602001807f596f75206d75737420626520746865206f776e6572202100000000000000000081525060200191505060405180910390fd5b6117bb614645565b600b60008481526020019081526020016000206040518060a0016040529081600082018054600181600116156101000203166002900480601f0160208091040260200160405190810160405280929190818152602001828054600181600116156101000203166002900480156118725780601f1061184757610100808354040283529160200191611872565b820191906000526020600020905b81548152906001019060200180831161185557829003601f168201915b50505050508152602001600182018054600181600116156101000203166002900480601f0160208091040260200160405190810160405280929190818152602001828054600181600116156101000203166002900480156119145780601f106118e957610100808354040283529160200191611914565b820191906000526020600020905b8154815290600101906020018083116118f757829003601f168201915b505050505081526020016002820160009054906101000a900461ffff1661ffff1661ffff168152602001600382018054600181600116156101000203166002900480601f0160208091040260200160405190810160405280929190818152602001828054600181600116156101000203166002900480156119d65780601f106119ab576101008083540402835291602001916119d6565b820191906000526020600020905b8154815290600101906020018083116119b957829003601f168201915b505050505081526020016004820160009054906101000a900460ff1615151515815250509050611a04614645565b600b60008481526020019081526020016000206040518060a0016040529081600082018054600181600116156101000203166002900480601f016020809104026020016040519081016040528092919081815260200182805460018160011615610100020316600290048015611abb5780601f10611a9057610100808354040283529160200191611abb565b820191906000526020600020905b815481529060010190602001808311611a9e57829003601f168201915b50505050508152602001600182018054600181600116156101000203166002900480601f016020809104026020016040519081016040528092919081815260200182805460018160011615610100020316600290048015611b5d5780601f10611b3257610100808354040283529160200191611b5d565b820191906000526020600020905b815481529060010190602001808311611b4057829003601f168201915b505050505081526020016002820160009054906101000a900461ffff1661ffff1661ffff168152602001600382018054600181600116156101000203166002900480601f016020809104026020016040519081016040528092919081815260200182805460018160011615610100020316600290048015611c1f5780601f10611bf457610100808354040283529160200191611c1f565b820191906000526020600020905b815481529060010190602001808311611c0257829003601f168201915b505050505081526020016004820160009054906101000a900460ff1615151515815250509050611c618260000151826020015184604001518460600151612498565b50505050565b6000611c97826040518060600160405280602981526020016148ad6029913960026135139092919063ffffffff16565b9050919050565b606060098054600181600116156101000203166002900480601f016020809104026020016040519081016040528092919081815260200182805460018160011615610100020316600290048015611d365780601f10611d0b57610100808354040283529160200191611d36565b820191906000526020600020905b815481529060010190602001808311611d1957829003601f168201915b5050505050905090565b60008073ffffffffffffffffffffffffffffffffffffffff168273ffffffffffffffffffffffffffffffffffffffff161415611dc7576040517f08c379a000000000000000000000000000000000000000000000000000000000815260040180806020018281038252602a815260200180614883602a913960400191505060405180910390fd5b611e0e600160008473ffffffffffffffffffffffffffffffffffffffff1673ffffffffffffffffffffffffffffffffffffffff168152602001908152602001600020613532565b9050919050565b606060078054600181600116156101000203166002900480601f016020809104026020016040519081016040528092919081815260200182805460018160011615610100020316600290048015611ead5780601f10611e8257610100808354040283529160200191611ead565b820191906000526020600020905b815481529060010190602001808311611e9057829003601f168201915b5050505050905090565b6000600c6000838152602001908152602001600020905060008180549050905060008114611f4d576040517f08c379a00000000000000000000000000000000000000000000000000000000081526004018080602001828103825260138152602001807f4e6f2061756374696f6e2065786973747320210000000000000000000000000081525060200191505060405180910390fd5b611f556145df565b82600184805490500381548110611f6857fe5b90600052602060002090600402016040518060c00160405290816000820160009054906101000a900473ffffffffffffffffffffffffffffffffffffffff1673ffffffffffffffffffffffffffffffffffffffff1673ffffffffffffffffffffffffffffffffffffffff16815260200160018201548152602001600282015481526020016003820160009054906101000a900473ffffffffffffffffffffffffffffffffffffffff1673ffffffffffffffffffffffffffffffffffffffff1673ffffffffffffffffffffffffffffffffffffffff1681526020016003820160149054906101000a900460ff161515151581526020016003820160159054906101000a900460ff1615151515815250509050806020015142116120f2576040517f08c379a000000000000000000000000000000000000000000000000000000000815260040180806020018281038252601e8152602001807f41756374696f6e206973206e6f7420616c726561647920656e6465642021000081525060200191505060405180910390fd5b806060015173ffffffffffffffffffffffffffffffffffffffff163373ffffffffffffffffffffffffffffffffffffffff1614612197576040517f08c379a00000000000000000000000000000000000000000000000000000000081526004018080602001828103825260208152602001807f596f7520617265206e6f7420746865206869676865737420626964646572202181525060200191505060405180910390fd5b8060800151156121f2576040517f08c379a00000000000000000000000000000000000000000000000000000000081526004018080602001828103825260258152602001806148f86025913960400191505060405180910390fd5b60018160800190151590811515815250507fdaec4582d5d9595688c8c98545fdd1c696d41c6aeaeb636737e84ed2f5c00eda81606001518260400151604051808373ffffffffffffffffffffffffffffffffffffffff1681526020018281526020019250505060405180910390a161226f3082606001518661328a565b50505050565b61227d6130c0565b73ffffffffffffffffffffffffffffffffffffffff168273ffffffffffffffffffffffffffffffffffffffff16141561231e576040517f08c379a00000000000000000000000000000000000000000000000000000000081526004018080602001828103825260198152602001807f4552433732313a20617070726f766520746f2063616c6c65720000000000000081525060200191505060405180910390fd5b806005600061232b6130c0565b73ffffffffffffffffffffffffffffffffffffffff1673ffffffffffffffffffffffffffffffffffffffff16815260200190815260200160002060008473ffffffffffffffffffffffffffffffffffffffff1673ffffffffffffffffffffffffffffffffffffffff16815260200190815260200160002060006101000a81548160ff0219169083151502179055508173ffffffffffffffffffffffffffffffffffffffff166123d86130c0565b73ffffffffffffffffffffffffffffffffffffffff167f17307eab39ab6107e8899845ad3d59bd9653f200f220920489ca2b5937696c318360405180821515815260200191505060405180910390a35050565b60006124373383613196565b9050919050565b6001600a60003373ffffffffffffffffffffffffffffffffffffffff1673ffffffffffffffffffffffffffffffffffffffff16815260200190815260200160002060006101000a81548160ff021916908315150217905550565b60011515600a60003373ffffffffffffffffffffffffffffffffffffffff1673ffffffffffffffffffffffffffffffffffffffff16815260200190815260200160002060009054906101000a900460ff161515146124f557600080fd5b61250133600e54613547565b6040518060a001604052808581526020018481526020018361ffff16815260200182815260200160011515815250600b6000600e548152602001908152602001600020600082015181600001908051906020019061256092919061467a565b50602082015181600101908051906020019061257d92919061467a565b5060408201518160020160006101000a81548161ffff021916908361ffff16021790555060608201518160030190805190602001906125bd92919061467a565b5060808201518160040160006101000a81548160ff0219169083151502179055509050506001600e6000828254019250508190555050505050565b6126096126036130c0565b83613196565b61265e576040517f08c379a00000000000000000000000000000000000000000000000000000000081526004018080602001828103825260318152602001806149c26031913960400191505060405180910390fd5b61266a84848484613565565b50505050565b6060600c6000848152602001908152602001600020805480602002602001604051908101604052809291908181526020016000905b828210156127cd57838290600052602060002090600402016040518060c00160405290816000820160009054906101000a900473ffffffffffffffffffffffffffffffffffffffff1673ffffffffffffffffffffffffffffffffffffffff1673ffffffffffffffffffffffffffffffffffffffff16815260200160018201548152602001600282015481526020016003820160009054906101000a900473ffffffffffffffffffffffffffffffffffffffff1673ffffffffffffffffffffffffffffffffffffffff1673ffffffffffffffffffffffffffffffffffffffff1681526020016003820160149054906101000a900460ff161515151581526020016003820160159054906101000a900460ff161515151581525050815260200190600101906126a5565b5050505090506000815190506000811461284f576040517f08c379a00000000000000000000000000000000000000000000000000000000081526004018080602001828103825260138152602001807f4e6f2061756374696f6e2065786973747320210000000000000000000000000081525060200191505060405180910390fd5b6128576145df565b82848151811061286357fe5b60200260200101519050806020015142116128e6576040517f08c379a000000000000000000000000000000000000000000000000000000000815260040180806020018281038252601e8152602001807f41756374696f6e206973206e6f7420616c726561647920656e6465642021000081525060200191505060405180910390fd5b806000015173ffffffffffffffffffffffffffffffffffffffff163373ffffffffffffffffffffffffffffffffffffffff161461298b576040517f08c379a000000000000000000000000000000000000000000000000000000000815260040180806020018281038252601d8152602001807f596f7520617265206e6f74207468652042656e6566696369617279202100000081525060200191505060405180910390fd5b8060a00151156129e6576040517f08c379a00000000000000000000000000000000000000000000000000000000081526004018080602001828103825260218152602001806147b46021913960400191505060405180910390fd5b60018160a00190151590811515815250503373ffffffffffffffffffffffffffffffffffffffff166108fc82604001519081150290604051600060405180830381858888f19350505050158015612a41573d6000803e3d6000fd5b505050505050565b6060612a54826130a3565b612aa9576040517f08c379a000000000000000000000000000000000000000000000000000000000815260040180806020018281038252602f815260200180614972602f913960400191505060405180910390fd5b6060600860008481526020019081526020016000208054600181600116156101000203166002900480601f016020809104026020016040519081016040528092919081815260200182805460018160011615610100020316600290048015612b525780601f10612b2757610100808354040283529160200191612b52565b820191906000526020600020905b815481529060010190602001808311612b3557829003601f168201915b505050505090506060612b63611c9e565b9050600081511415612b79578192505050612d15565b600082511115612c4a5780826040516020018083805190602001908083835b60208310612bbb5780518252602082019150602081019050602083039250612b98565b6001836020036101000a03801982511681845116808217855250505050505090500182805190602001908083835b60208310612c0c5780518252602082019150602081019050602083039250612be9565b6001836020036101000a0380198251168184511680821785525050505050509050019250505060405160208183030381529060405292505050612d15565b80612c54856135d7565b6040516020018083805190602001908083835b60208310612c8a5780518252602082019150602081019050602083039250612c67565b6001836020036101000a03801982511681845116808217855250505050505090500182805190602001908083835b60208310612cdb5780518252602082019150602081019050602083039250612cb8565b6001836020036101000a03801982511681845116808217855250505050505090500192505050604051602081830303815290604052925050505b919050565b6000600c600083815260200190815260200160002090506000818054905090506000811480612d7a575060011515826001830381548110612d5757fe5b906000526020600020906004020160030160149054906101000a900460ff161515145b612dec576040517f08c379a00000000000000000000000000000000000000000000000000000000081526004018080602001828103825260208152602001807f4c6173742061756374696f6e207374696c6c206e6f7420636c61696d6564202181525060200191505060405180910390fd5b60006202a30042019050600c60008581526020019081526020016000206040518060c001604052803373ffffffffffffffffffffffffffffffffffffffff168152602001838152602001600081526020013373ffffffffffffffffffffffffffffffffffffffff16815260200160001515815260200160001515815250908060018154018082558091505060019003906000526020600020906004020160009091909190915060008201518160000160006101000a81548173ffffffffffffffffffffffffffffffffffffffff021916908373ffffffffffffffffffffffffffffffffffffffff160217905550602082015181600101556040820151816002015560608201518160030160006101000a81548173ffffffffffffffffffffffffffffffffffffffff021916908373ffffffffffffffffffffffffffffffffffffffff16021790555060808201518160030160146101000a81548160ff02191690831515021790555060a08201518160030160156101000a81548160ff0219169083151502179055505050612f8133308661328a565b50505050565b6000600560008473ffffffffffffffffffffffffffffffffffffffff1673ffffffffffffffffffffffffffffffffffffffff16815260200190815260200160002060008373ffffffffffffffffffffffffffffffffffffffff1673ffffffffffffffffffffffffffffffffffffffff16815260200190815260200160002060009054906101000a900460ff16905092915050565b6130253382613196565b613097576040517f08c379a00000000000000000000000000000000000000000000000000000000081526004018080602001828103825260178152602001807f596f75206d75737420626520746865206f776e6572202100000000000000000081525060200191505060405180910390fd5b6130a08161371e565b50565b60006130b982600261385890919063ffffffff16565b9050919050565b600033905090565b816004600083815260200190815260200160002060006101000a81548173ffffffffffffffffffffffffffffffffffffffff021916908373ffffffffffffffffffffffffffffffffffffffff160217905550808273ffffffffffffffffffffffffffffffffffffffff1661313b83611c67565b73ffffffffffffffffffffffffffffffffffffffff167f8c5be1e5ebec7d5bd14f71427d1e84f3dd0314c0f7b2291e5b200ac8c7c3b92560405160405180910390a45050565b600061318f82600001613872565b9050919050565b60006131a1826130a3565b6131f6576040517f08c379a000000000000000000000000000000000000000000000000000000000815260040180806020018281038252602c81526020018061481f602c913960400191505060405180910390fd5b600061320183611c67565b90508073ffffffffffffffffffffffffffffffffffffffff168473ffffffffffffffffffffffffffffffffffffffff16148061327057508373ffffffffffffffffffffffffffffffffffffffff1661325884610edf565b73ffffffffffffffffffffffffffffffffffffffff16145b8061328157506132808185612f87565b5b91505092915050565b8273ffffffffffffffffffffffffffffffffffffffff166132aa82611c67565b73ffffffffffffffffffffffffffffffffffffffff1614613316576040517f08c379a00000000000000000000000000000000000000000000000000000000081526004018080602001828103825260298152602001806149496029913960400191505060405180910390fd5b600073ffffffffffffffffffffffffffffffffffffffff168273ffffffffffffffffffffffffffffffffffffffff16141561339c576040517f08c379a00000000000000000000000000000000000000000000000000000000081526004018080602001828103825260248152602001806147d56024913960400191505060405180910390fd5b6133a7838383613883565b6133b26000826130c8565b61340381600160008673ffffffffffffffffffffffffffffffffffffffff1673ffffffffffffffffffffffffffffffffffffffff16815260200190815260200160002061388890919063ffffffff16565b5061345581600160008573ffffffffffffffffffffffffffffffffffffffff1673ffffffffffffffffffffffffffffffffffffffff1681526020019081526020016000206138a290919063ffffffff16565b5061346c818360026138bc9092919063ffffffff16565b50808273ffffffffffffffffffffffffffffffffffffffff168473ffffffffffffffffffffffffffffffffffffffff167fddf252ad1be2c89b69c2b068fc378daa952ba7f163c4a11628f55a4df523b3ef60405160405180910390a4505050565b60006134dc83600001836138f1565b60001c905092915050565b6000806000806134fa8660000186613974565b915091508160001c8160001c9350935050509250929050565b6000613526846000018460001b84613a0d565b60001c90509392505050565b600061354082600001613b03565b9050919050565b613561828260405180602001604052806000815250613b14565b5050565b61357084848461328a565b61357c84848484613b85565b6135d1576040517f08c379a00000000000000000000000000000000000000000000000000000000081526004018080602001828103825260328152602001806147826032913960400191505060405180910390fd5b50505050565b6060600082141561361f576040518060400160405280600181526020017f30000000000000000000000000000000000000000000000000000000000000008152509050613719565b600082905060005b60008214613649578080600101915050600a828161364157fe5b049150613627565b60608167ffffffffffffffff8111801561366257600080fd5b506040519080825280601f01601f1916602001820160405280156136955781602001600182028036833780820191505090505b50905060006001830390508593505b6000841461371157600a84816136b657fe5b0660300160f81b828280600190039350815181106136d057fe5b60200101907effffffffffffffffffffffffffffffffffffffffffffffffffffffffffffff1916908160001a905350600a848161370957fe5b0493506136a4565b819450505050505b919050565b600061372982611c67565b905061373781600084613883565b6137426000836130c8565b600060086000848152602001908152602001600020805460018160011615610100020316600290049050146137915760086000838152602001908152602001600020600061379091906146fa565b5b6137e282600160008473ffffffffffffffffffffffffffffffffffffffff1673ffffffffffffffffffffffffffffffffffffffff16815260200190815260200160002061388890919063ffffffff16565b506137f7826002613d9e90919063ffffffff16565b5081600073ffffffffffffffffffffffffffffffffffffffff168273ffffffffffffffffffffffffffffffffffffffff167fddf252ad1be2c89b69c2b068fc378daa952ba7f163c4a11628f55a4df523b3ef60405160405180910390a45050565b600061386a836000018360001b613db8565b905092915050565b600081600001805490509050919050565b505050565b600061389a836000018360001b613ddb565b905092915050565b60006138b4836000018360001b613ec3565b905092915050565b60006138e8846000018460001b8473ffffffffffffffffffffffffffffffffffffffff1660001b613f33565b90509392505050565b600081836000018054905011613952576040517f08c379a00000000000000000000000000000000000000000000000000000000081526004018080602001828103825260228152602001806147606022913960400191505060405180910390fd5b82600001828154811061396157fe5b9060005260206000200154905092915050565b600080828460000180549050116139d6576040517f08c379a00000000000000000000000000000000000000000000000000000000081526004018080602001828103825260228152602001806148d66022913960400191505060405180910390fd5b60008460000184815481106139e757fe5b906000526020600020906002020190508060000154816001015492509250509250929050565b60008084600101600085815260200190815260200160002054905060008114158390613ad4576040517f08c379a00000000000000000000000000000000000000000000000000000000081526004018080602001828103825283818151815260200191508051906020019080838360005b83811015613a99578082015181840152602081019050613a7e565b50505050905090810190601f168015613ac65780820380516001836020036101000a031916815260200191505b509250505060405180910390fd5b50846000016001820381548110613ae757fe5b9060005260206000209060020201600101549150509392505050565b600081600001805490509050919050565b613b1e838361400f565b613b2b6000848484613b85565b613b80576040517f08c379a00000000000000000000000000000000000000000000000000000000081526004018080602001828103825260328152602001806147826032913960400191505060405180910390fd5b505050565b6000613ba68473ffffffffffffffffffffffffffffffffffffffff16614203565b613bb35760019050613d96565b6060613d1d63150b7a0260e01b613bc86130c0565b888787604051602401808573ffffffffffffffffffffffffffffffffffffffff1681526020018473ffffffffffffffffffffffffffffffffffffffff16815260200183815260200180602001828103825283818151815260200191508051906020019080838360005b83811015613c4c578082015181840152602081019050613c31565b50505050905090810190601f168015613c795780820380516001836020036101000a031916815260200191505b5095505050505050604051602081830303815290604052907bffffffffffffffffffffffffffffffffffffffffffffffffffffffff19166020820180517bffffffffffffffffffffffffffffffffffffffffffffffffffffffff8381831617835250505050604051806060016040528060328152602001614782603291398773ffffffffffffffffffffffffffffffffffffffff166142169092919063ffffffff16565b90506000818060200190516020811015613d3657600080fd5b8101908080519060200190929190505050905063150b7a0260e01b7bffffffffffffffffffffffffffffffffffffffffffffffffffffffff1916817bffffffffffffffffffffffffffffffffffffffffffffffffffffffff191614925050505b949350505050565b6000613db0836000018360001b61422e565b905092915050565b600080836001016000848152602001908152602001600020541415905092915050565b60008083600101600084815260200190815260200160002054905060008114613eb75760006001820390506000600186600001805490500390506000866000018281548110613e2657fe5b9060005260206000200154905080876000018481548110613e4357fe5b9060005260206000200181905550600183018760010160008381526020019081526020016000208190555086600001805480613e7b57fe5b60019003818190600052602060002001600090559055866001016000878152602001908152602001600020600090556001945050505050613ebd565b60009150505b92915050565b6000613ecf8383614347565b613f28578260000182908060018154018082558091505060019003906000526020600020016000909190919091505582600001805490508360010160008481526020019081526020016000208190555060019050613f2d565b600090505b92915050565b6000808460010160008581526020019081526020016000205490506000811415613fda57846000016040518060400160405280868152602001858152509080600181540180825580915050600190039060005260206000209060020201600090919091909150600082015181600001556020820151816001015550508460000180549050856001016000868152602001908152602001600020819055506001915050614008565b82856000016001830381548110613fed57fe5b90600052602060002090600202016001018190555060009150505b9392505050565b600073ffffffffffffffffffffffffffffffffffffffff168273ffffffffffffffffffffffffffffffffffffffff1614156140b2576040517f08c379a00000000000000000000000000000000000000000000000000000000081526004018080602001828103825260208152602001807f4552433732313a206d696e7420746f20746865207a65726f206164647265737381525060200191505060405180910390fd5b6140bb816130a3565b1561412e576040517f08c379a000000000000000000000000000000000000000000000000000000000815260040180806020018281038252601c8152602001807f4552433732313a20746f6b656e20616c7265616479206d696e7465640000000081525060200191505060405180910390fd5b61413a60008383613883565b61418b81600160008573ffffffffffffffffffffffffffffffffffffffff1673ffffffffffffffffffffffffffffffffffffffff1681526020019081526020016000206138a290919063ffffffff16565b506141a2818360026138bc9092919063ffffffff16565b50808273ffffffffffffffffffffffffffffffffffffffff16600073ffffffffffffffffffffffffffffffffffffffff167fddf252ad1be2c89b69c2b068fc378daa952ba7f163c4a11628f55a4df523b3ef60405160405180910390a45050565b600080823b905060008111915050919050565b6060614225848460008561436a565b90509392505050565b6000808360010160008481526020019081526020016000205490506000811461433b576000600182039050600060018660000180549050039050600086600001828154811061427957fe5b906000526020600020906002020190508087600001848154811061429957fe5b90600052602060002090600202016000820154816000015560018201548160010155905050600183018760010160008360000154815260200190815260200160002081905550866000018054806142ec57fe5b6001900381819060005260206000209060020201600080820160009055600182016000905550509055866001016000878152602001908152602001600020600090556001945050505050614341565b60009150505b92915050565b600080836001016000848152602001908152602001600020541415905092915050565b6060824710156143c5576040517f08c379a00000000000000000000000000000000000000000000000000000000081526004018080602001828103825260268152602001806147f96026913960400191505060405180910390fd5b6143ce85614203565b614440576040517f08c379a000000000000000000000000000000000000000000000000000000000815260040180806020018281038252601d8152602001807f416464726573733a2063616c6c20746f206e6f6e2d636f6e747261637400000081525060200191505060405180910390fd5b600060608673ffffffffffffffffffffffffffffffffffffffff1685876040518082805190602001908083835b60208310614490578051825260208201915060208101905060208303925061446d565b6001836020036101000a03801982511681845116808217855250505050505090500191505060006040518083038185875af1925050503d80600081146144f2576040519150601f19603f3d011682016040523d82523d6000602084013e6144f7565b606091505b5091509150614507828286614513565b92505050949350505050565b60608315614523578290506145d8565b6000835111156145365782518084602001fd5b816040517f08c379a00000000000000000000000000000000000000000000000000000000081526004018080602001828103825283818151815260200191508051906020019080838360005b8381101561459d578082015181840152602081019050614582565b50505050905090810190601f1680156145ca5780820380516001836020036101000a031916815260200191505b509250505060405180910390fd5b9392505050565b6040518060c00160405280600073ffffffffffffffffffffffffffffffffffffffff1681526020016000815260200160008152602001600073ffffffffffffffffffffffffffffffffffffffff1681526020016000151581526020016000151581525090565b6040518060a001604052806060815260200160608152602001600061ffff168152602001606081526020016000151581525090565b828054600181600116156101000203166002900490600052602060002090601f016020900481019282601f106146bb57805160ff19168380011785556146e9565b828001600101855582156146e9579182015b828111156146e85782518255916020019190600101906146cd565b5b5090506146f69190614742565b5090565b50805460018160011615610100020316600290046000825580601f10614720575061473f565b601f01602090049060005260206000209081019061473e9190614742565b5b50565b5b8082111561475b576000816000905550600101614743565b509056fe456e756d657261626c655365743a20696e646578206f7574206f6620626f756e64734552433732313a207472616e7366657220746f206e6f6e20455243373231526563656976657220696d706c656d656e746572636c61696d4269642068617320616c7265616479206265656e2063616c6c65642e4552433732313a207472616e7366657220746f20746865207a65726f2061646472657373416464726573733a20696e73756666696369656e742062616c616e636520666f722063616c6c4552433732313a206f70657261746f7220717565727920666f72206e6f6e6578697374656e7420746f6b656e4552433732313a20617070726f76652063616c6c6572206973206e6f74206f776e6572206e6f7220617070726f76656420666f7220616c6c4552433732313a2062616c616e636520717565727920666f7220746865207a65726f20616464726573734552433732313a206f776e657220717565727920666f72206e6f6e6578697374656e7420746f6b656e456e756d657261626c654d61703a20696e646578206f7574206f6620626f756e6473636c61696d41756374696f6e2068617320616c7265616479206265656e2063616c6c65642e4552433732313a20617070726f76656420717565727920666f72206e6f6e6578697374656e7420746f6b656e4552433732313a207472616e73666572206f6620746f6b656e2074686174206973206e6f74206f776e4552433732314d657461646174613a2055524920717565727920666f72206e6f6e6578697374656e7420746f6b656e4552433732313a20617070726f76616c20746f2063757272656e74206f776e65724552433732313a207472616e736665722063616c6c6572206973206e6f74206f776e6572206e6f7220617070726f766564a2646970667358221220ae512f50851817ed3b8600884974e27b38f77ebed68f101ad95c51dd19c463e364736f6c63430007000033",
  "immutableReferences": {},
  "source": "pragma solidity ^0.7.0;\n\nimport \"./DANOU.sol\";\nimport \"@openzeppelin/contracts/token/ERC721/ERC721.sol\";\n\ncontract Fight {\n\n    struct Game {\n        address player1;\n        uint256 animalPlayer1; \n\n        uint256 bet;\n        bool exists;\n        bool done;\n    }\n\n    mapping (uint256=>Game) private games;\n    uint256 private counter = 0;\n    DANOU private danou = new DANOU();\n\n    // constructor() public {\n    //     danou = new DANOU();\n    // }\n\n    function proposeToFight(uint256 tokenId) public payable {\n        require(danou.isOwnerOf(tokenId) == true, \"You must be the owner of the NFT !\");\n        Game memory game = Game(msg.sender, tokenId, msg.value, true, false);\n        games[counter] = game;\n        counter += 1;\n    }\n\n    function agreeToFight(uint256 game_index, uint256 tokenId) public payable {\n        require(danou.isOwnerOf(tokenId) == true, \"You must be the owner of the NFT !\");\n        Game memory game = games[game_index];\n        require(game.exists == true, \"The game doesn't exist !\");\n        require(msg.value == game.bet, \"The bet doesn't match with the value sent !\");\n        require(!game.done, \"Challenge already done !\");\n\n        if (tokenId > game.animalPlayer1) {\n            danou.deadAnimal(game.animalPlayer1);\n            msg.sender.transfer(game.bet);\n        } else {\n            danou.deadAnimal(tokenId);\n            msg.sender.transfer(game.bet);\n        }\n        game.done = true;\n    }\n} ",
  "sourcePath": "/home/neil/Documents/Dev/Solidity/NFT/contracts/Fight.sol",
  "compiler": {
    "name": "solc",
    "version": "0.7.0+commit.9e61f92b.Emscripten.clang"
  },
  "schemaVersion": "3.3.4",
  "updatedAt": "2021-03-20T21:41:33.604Z",
  "devdoc": {
    "kind": "dev",
    "methods": {},
    "version": 1
  },
  "userdoc": {
    "kind": "user",
    "methods": {},
    "version": 1
  }
}